{
  "contractName": "Hermes",
  "abi": [
    {
      "inputs": [],
      "stateMutability": "nonpayable",
      "type": "constructor"
    },
    {
      "anonymous": false,
      "inputs": [
        {
          "indexed": true,
          "internalType": "address",
          "name": "owner",
          "type": "address"
        },
        {
          "indexed": true,
          "internalType": "address",
          "name": "approved",
          "type": "address"
        },
        {
          "indexed": true,
          "internalType": "uint256",
          "name": "tokenId",
          "type": "uint256"
        }
      ],
      "name": "Approval",
      "type": "event"
    },
    {
      "anonymous": false,
      "inputs": [
        {
          "indexed": true,
          "internalType": "address",
          "name": "owner",
          "type": "address"
        },
        {
          "indexed": true,
          "internalType": "address",
          "name": "operator",
          "type": "address"
        },
        {
          "indexed": false,
          "internalType": "bool",
          "name": "approved",
          "type": "bool"
        }
      ],
      "name": "ApprovalForAll",
      "type": "event"
    },
    {
      "anonymous": false,
      "inputs": [
        {
          "indexed": true,
          "internalType": "address",
          "name": "from",
          "type": "address"
        },
        {
          "indexed": true,
          "internalType": "address",
          "name": "to",
          "type": "address"
        },
        {
          "indexed": true,
          "internalType": "uint256",
          "name": "tokenId",
          "type": "uint256"
        }
      ],
      "name": "Transfer",
      "type": "event"
    },
    {
      "inputs": [],
      "name": "_postIds",
      "outputs": [
        {
          "internalType": "uint256",
          "name": "",
          "type": "uint256"
        }
      ],
      "stateMutability": "view",
      "type": "function"
    },
    {
      "inputs": [],
      "name": "_tokenIds",
      "outputs": [
        {
          "internalType": "uint256",
          "name": "",
          "type": "uint256"
        }
      ],
      "stateMutability": "view",
      "type": "function"
    },
    {
      "inputs": [
        {
          "internalType": "address",
          "name": "to",
          "type": "address"
        },
        {
          "internalType": "uint256",
          "name": "tokenId",
          "type": "uint256"
        }
      ],
      "name": "approve",
      "outputs": [],
      "stateMutability": "nonpayable",
      "type": "function"
    },
    {
      "inputs": [
        {
          "internalType": "address",
          "name": "owner",
          "type": "address"
        }
      ],
      "name": "balanceOf",
      "outputs": [
        {
          "internalType": "uint256",
          "name": "",
          "type": "uint256"
        }
      ],
      "stateMutability": "view",
      "type": "function"
    },
    {
      "inputs": [],
      "name": "baseURI",
      "outputs": [
        {
          "internalType": "string",
          "name": "",
          "type": "string"
        }
      ],
      "stateMutability": "view",
      "type": "function"
    },
    {
      "inputs": [
        {
          "internalType": "uint256",
          "name": "tokenId",
          "type": "uint256"
        }
      ],
      "name": "getApproved",
      "outputs": [
        {
          "internalType": "address",
          "name": "",
          "type": "address"
        }
      ],
      "stateMutability": "view",
      "type": "function"
    },
    {
      "inputs": [
        {
          "internalType": "address",
          "name": "owner",
          "type": "address"
        },
        {
          "internalType": "address",
          "name": "operator",
          "type": "address"
        }
      ],
      "name": "isApprovedForAll",
      "outputs": [
        {
          "internalType": "bool",
          "name": "",
          "type": "bool"
        }
      ],
      "stateMutability": "view",
      "type": "function"
    },
    {
      "inputs": [],
      "name": "name",
      "outputs": [
        {
          "internalType": "string",
          "name": "",
          "type": "string"
        }
      ],
      "stateMutability": "view",
      "type": "function"
    },
    {
      "inputs": [
        {
          "internalType": "uint256",
          "name": "tokenId",
          "type": "uint256"
        }
      ],
      "name": "ownerOf",
      "outputs": [
        {
          "internalType": "address",
          "name": "",
          "type": "address"
        }
      ],
      "stateMutability": "view",
      "type": "function"
    },
    {
      "inputs": [
        {
          "internalType": "address",
          "name": "dest",
          "type": "address"
        }
      ],
      "name": "payments",
      "outputs": [
        {
          "internalType": "uint256",
          "name": "",
          "type": "uint256"
        }
      ],
      "stateMutability": "view",
      "type": "function"
    },
    {
      "inputs": [
        {
          "internalType": "address",
          "name": "from",
          "type": "address"
        },
        {
          "internalType": "address",
          "name": "to",
          "type": "address"
        },
        {
          "internalType": "uint256",
          "name": "tokenId",
          "type": "uint256"
        }
      ],
      "name": "safeTransferFrom",
      "outputs": [],
      "stateMutability": "nonpayable",
      "type": "function"
    },
    {
      "inputs": [
        {
          "internalType": "address",
          "name": "from",
          "type": "address"
        },
        {
          "internalType": "address",
          "name": "to",
          "type": "address"
        },
        {
          "internalType": "uint256",
          "name": "tokenId",
          "type": "uint256"
        },
        {
          "internalType": "bytes",
          "name": "_data",
          "type": "bytes"
        }
      ],
      "name": "safeTransferFrom",
      "outputs": [],
      "stateMutability": "nonpayable",
      "type": "function"
    },
    {
      "inputs": [
        {
          "internalType": "address",
          "name": "operator",
          "type": "address"
        },
        {
          "internalType": "bool",
          "name": "approved",
          "type": "bool"
        }
      ],
      "name": "setApprovalForAll",
      "outputs": [],
      "stateMutability": "nonpayable",
      "type": "function"
    },
    {
      "inputs": [
        {
          "internalType": "bytes4",
          "name": "interfaceId",
          "type": "bytes4"
        }
      ],
      "name": "supportsInterface",
      "outputs": [
        {
          "internalType": "bool",
          "name": "",
          "type": "bool"
        }
      ],
      "stateMutability": "view",
      "type": "function"
    },
    {
      "inputs": [],
      "name": "symbol",
      "outputs": [
        {
          "internalType": "string",
          "name": "",
          "type": "string"
        }
      ],
      "stateMutability": "view",
      "type": "function"
    },
    {
      "inputs": [
        {
          "internalType": "uint256",
          "name": "index",
          "type": "uint256"
        }
      ],
      "name": "tokenByIndex",
      "outputs": [
        {
          "internalType": "uint256",
          "name": "",
          "type": "uint256"
        }
      ],
      "stateMutability": "view",
      "type": "function"
    },
    {
      "inputs": [
        {
          "internalType": "address",
          "name": "owner",
          "type": "address"
        },
        {
          "internalType": "uint256",
          "name": "index",
          "type": "uint256"
        }
      ],
      "name": "tokenOfOwnerByIndex",
      "outputs": [
        {
          "internalType": "uint256",
          "name": "",
          "type": "uint256"
        }
      ],
      "stateMutability": "view",
      "type": "function"
    },
    {
      "inputs": [
        {
          "internalType": "uint256",
          "name": "tokenId",
          "type": "uint256"
        }
      ],
      "name": "tokenURI",
      "outputs": [
        {
          "internalType": "string",
          "name": "",
          "type": "string"
        }
      ],
      "stateMutability": "view",
      "type": "function"
    },
    {
      "inputs": [],
      "name": "totalSupply",
      "outputs": [
        {
          "internalType": "uint256",
          "name": "",
          "type": "uint256"
        }
      ],
      "stateMutability": "view",
      "type": "function"
    },
    {
      "inputs": [
        {
          "internalType": "address",
          "name": "from",
          "type": "address"
        },
        {
          "internalType": "address",
          "name": "to",
          "type": "address"
        },
        {
          "internalType": "uint256",
          "name": "tokenId",
          "type": "uint256"
        }
      ],
      "name": "transferFrom",
      "outputs": [],
      "stateMutability": "nonpayable",
      "type": "function"
    },
    {
      "inputs": [
        {
          "internalType": "address payable",
          "name": "payee",
          "type": "address"
        }
      ],
      "name": "withdrawPayments",
      "outputs": [],
      "stateMutability": "nonpayable",
      "type": "function"
    },
    {
      "inputs": [
        {
          "internalType": "uint256",
          "name": "price",
          "type": "uint256"
        },
        {
          "internalType": "string",
          "name": "postData",
          "type": "string"
        }
      ],
      "name": "addPost",
      "outputs": [],
      "stateMutability": "nonpayable",
      "type": "function"
    },
    {
      "inputs": [
        {
          "internalType": "uint256",
          "name": "id",
          "type": "uint256"
        }
      ],
      "name": "getPost",
      "outputs": [
        {
          "internalType": "uint256",
          "name": "",
          "type": "uint256"
        },
        {
          "internalType": "uint256",
          "name": "",
          "type": "uint256"
        },
        {
          "internalType": "string",
          "name": "",
          "type": "string"
        }
      ],
      "stateMutability": "view",
      "type": "function"
    },
    {
      "inputs": [
        {
          "internalType": "uint256",
          "name": "postId",
          "type": "uint256"
        }
      ],
      "name": "purchasePost",
      "outputs": [],
      "stateMutability": "payable",
      "type": "function"
    },
    {
      "inputs": [],
      "name": "getPayments",
      "outputs": [],
      "stateMutability": "nonpayable",
      "type": "function"
    }
  ],
  "bytecode": "0x60806040523480156200001157600080fd5b50604051806040016040528060068152602001654865726d657360d01b815250604051806040016040528060068152602001654845524d455360d01b815250620000686301ffc9a760e01b6200012360201b60201c565b81516200007d906006906020850190620001a8565b50805162000093906007906020840190620001a8565b50620000a66380ac58cd60e01b62000123565b620000b8635b5e139f60e01b62000123565b620000ca63780e9d6360e01b62000123565b5050604051620000da906200023d565b604051809103906000f080158015620000f7573d6000803e3d6000fd5b50600a80546001600160a01b0319166001600160a01b03929092169190911790556001600b5562000262565b6001600160e01b0319808216141562000183576040805162461bcd60e51b815260206004820152601c60248201527f4552433136353a20696e76616c696420696e7465726661636520696400000000604482015290519081900360640190fd5b6001600160e01b0319166000908152602081905260409020805460ff19166001179055565b828054600181600116156101000203166002900490600052602060002090601f016020900481019282620001e057600085556200022b565b82601f10620001fb57805160ff19168380011785556200022b565b828001600101855582156200022b579182015b828111156200022b5782518255916020019190600101906200020e565b50620002399291506200024b565b5090565b61074f806200286b83390190565b5b808211156200023957600081556001016200024c565b6125f980620002726000396000f3fe6080604052600436106101665760003560e01c80634f6ccce7116100d1578063aa46a4001161008a578063d56bd14211610064578063d56bd1421461075c578063e2982c2114610771578063e75c94dc146107a4578063e985e9c5146107b957610166565b8063aa46a4001461064a578063b88d4fde1461065f578063c87b56dd1461073257610166565b80634f6ccce71461055e5780636352211e146105885780636c0360eb146105b257806370a08231146105c757806395d89b41146105fa578063a22cb4651461060f57610166565b80632f745c59116101235780632f745c591461032857806331b3eb94146103615780633bea844f146103945780633c61c7421461044e57806340731c241461046b57806342842e0e1461051b57610166565b806301ffc9a71461016b57806306fdde03146101b3578063081812fc1461023d578063095ea7b31461028357806318160ddd146102be57806323b872dd146102e5575b600080fd5b34801561017757600080fd5b5061019f6004803603602081101561018e57600080fd5b50356001600160e01b0319166107f4565b604080519115158252519081900360200190f35b3480156101bf57600080fd5b506101c8610817565b6040805160208082528351818301528351919283929083019185019080838360005b838110156102025781810151838201526020016101ea565b50505050905090810190601f16801561022f5780820380516001836020036101000a031916815260200191505b509250505060405180910390f35b34801561024957600080fd5b506102676004803603602081101561026057600080fd5b50356108ad565b604080516001600160a01b039092168252519081900360200190f35b34801561028f57600080fd5b506102bc600480360360408110156102a657600080fd5b506001600160a01b03813516906020013561090f565b005b3480156102ca57600080fd5b506102d36109ea565b60408051918252519081900360200190f35b3480156102f157600080fd5b506102bc6004803603606081101561030857600080fd5b506001600160a01b038135811691602081013590911690604001356109fb565b34801561033457600080fd5b506102d36004803603604081101561034b57600080fd5b506001600160a01b038135169060200135610a52565b34801561036d57600080fd5b506102bc6004803603602081101561038457600080fd5b50356001600160a01b0316610a7d565b3480156103a057600080fd5b506102bc600480360360408110156103b757600080fd5b813591908101906040810160208201356401000000008111156103d957600080fd5b8201836020820111156103eb57600080fd5b8035906020019184600183028401116401000000008311171561040d57600080fd5b91908080601f016020809104026020016040519081016040528093929190818152602001838380828437600092019190915250929550610ae6945050505050565b6102bc6004803603602081101561046457600080fd5b5035610c28565b34801561047757600080fd5b506104956004803603602081101561048e57600080fd5b5035610e04565b6040518084815260200183815260200180602001828103825283818151815260200191508051906020019080838360005b838110156104de5781810151838201526020016104c6565b50505050905090810190601f16801561050b5780820380516001836020036101000a031916815260200191505b5094505050505060405180910390f35b34801561052757600080fd5b506102bc6004803603606081101561053e57600080fd5b506001600160a01b03813581169160208101359091169060400135610f52565b34801561056a57600080fd5b506102d36004803603602081101561058157600080fd5b5035610f6d565b34801561059457600080fd5b50610267600480360360208110156105ab57600080fd5b5035610f83565b3480156105be57600080fd5b506101c8610fab565b3480156105d357600080fd5b506102d3600480360360208110156105ea57600080fd5b50356001600160a01b031661100c565b34801561060657600080fd5b506101c8611074565b34801561061b57600080fd5b506102bc6004803603604081101561063257600080fd5b506001600160a01b03813516906020013515156110d5565b34801561065657600080fd5b506102d36111da565b34801561066b57600080fd5b506102bc6004803603608081101561068257600080fd5b6001600160a01b038235811692602081013590911691604082013591908101906080810160608201356401000000008111156106bd57600080fd5b8201836020820111156106cf57600080fd5b803590602001918460018302840111640100000000831117156106f157600080fd5b91908080601f0160208091040260200160405190810160405280939291908181526020018383808284376000920191909152509295506111e0945050505050565b34801561073e57600080fd5b506101c86004803603602081101561075557600080fd5b503561123e565b34801561076857600080fd5b506102bc6114e5565b34801561077d57600080fd5b506102d36004803603602081101561079457600080fd5b50356001600160a01b03166114f0565b3480156107b057600080fd5b506102d3611573565b3480156107c557600080fd5b5061019f600480360360408110156107dc57600080fd5b506001600160a01b0381358116916020013516611579565b6001600160e01b0319811660009081526020819052604090205460ff165b919050565b60068054604080516020601f60026000196101006001881615020190951694909404938401819004810282018101909252828152606093909290918301828280156108a35780601f10610878576101008083540402835291602001916108a3565b820191906000526020600020905b81548152906001019060200180831161088657829003601f168201915b5050505050905090565b60006108b8826115a7565b6108f35760405162461bcd60e51b815260040180806020018281038252602c8152602001806124c2602c913960400191505060405180910390fd5b506000908152600460205260409020546001600160a01b031690565b600061091a82610f83565b9050806001600160a01b0316836001600160a01b0316141561096d5760405162461bcd60e51b81526004018080602001828103825260218152602001806125726021913960400191505060405180910390fd5b806001600160a01b031661097f6115b4565b6001600160a01b031614806109a057506109a08161099b6115b4565b611579565b6109db5760405162461bcd60e51b81526004018080602001828103825260388152602001806124156038913960400191505060405180910390fd5b6109e583836115b8565b505050565b60006109f66002611626565b905090565b610a0c610a066115b4565b82611631565b610a475760405162461bcd60e51b81526004018080602001828103825260318152602001806125936031913960400191505060405180910390fd5b6109e58383836116d5565b6001600160a01b0382166000908152600160205260408120610a749083611821565b90505b92915050565b600a54604080516351cff8d960e01b81526001600160a01b038481166004830152915191909216916351cff8d991602480830192600092919082900301818387803b158015610acb57600080fd5b505af1158015610adf573d6000803e3d6000fd5b5050505050565b6002600b541415610b3e576040805162461bcd60e51b815260206004820152601f60248201527f5265656e7472616e637947756172643a207265656e7472616e742063616c6c00604482015290519081900360640190fd5b6002600b5581610b89576040805162461bcd60e51b8152602060048201526011602482015270050726963652063616e6e6f74206265203607c1b604482015290519081900360640190fd5b600d8054600190810191829055604080516080810182523381526020808201878152828401878152606084018690526000968752600e835293909520825181546001600160a01b0319166001600160a01b0390911617815594519385019390935590518051919392610c039260028501929091019061229c565b50606091909101516003909101805460ff191691151591909117905550506001600b55565b6000818152600e6020526040902060030154819060ff16610c7c576040805162461bcd60e51b8152602060048201526009602482015268139bdd08119bdd5b9960ba1b604482015290519081900360640190fd5b6002600b541415610cd4576040805162461bcd60e51b815260206004820152601f60248201527f5265656e7472616e637947756172643a207265656e7472616e742063616c6c00604482015290519081900360640190fd5b6002600b556000828152600e602052604090206001810154341015610d36576040805162461bcd60e51b8152602060048201526013602482015272596f75722062696420697320746f6f206c6f7760681b604482015290519081900360640190fd5b600c805460010190819055610d4c90339061182d565b600c54600282810180546040805160206001841615610100026000190190931694909404601f8101839004830285018301909152808452610de594939291830182828015610ddb5780601f10610db057610100808354040283529160200191610ddb565b820191906000526020600020905b815481529060010190602001808311610dbe57829003601f168201915b505050505061184b565b8054610dfa906001600160a01b0316346118ae565b50506001600b5550565b6000818152600e60205260408120600301548190606090849060ff16610e5d576040805162461bcd60e51b8152602060048201526009602482015268139bdd08119bdd5b9960ba1b604482015290519081900360640190fd5b610e65612328565b6000868152600e6020908152604091829020825160808101845281546001600160a01b03168152600180830154828501526002808401805487516101009482161594909402600019011691909104601f81018690048602830186018752808352929593949386019391929091830182828015610f225780601f10610ef757610100808354040283529160200191610f22565b820191906000526020600020905b815481529060010190602001808311610f0557829003601f168201915b50505091835250506003919091015460ff1615156020918201528101516040909101519697909695509350505050565b6109e5838383604051806020016040528060008152506111e0565b600080610f7b60028461191c565b509392505050565b6000610a77826040518060600160405280602981526020016124776029913960029190611938565b60098054604080516020601f60026000196101006001881615020190951694909404938401819004810282018101909252828152606093909290918301828280156108a35780601f10610878576101008083540402835291602001916108a3565b60006001600160a01b0382166110535760405162461bcd60e51b815260040180806020018281038252602a81526020018061244d602a913960400191505060405180910390fd5b6001600160a01b0382166000908152600160205260409020610a7790611626565b60078054604080516020601f60026000196101006001881615020190951694909404938401819004810282018101909252828152606093909290918301828280156108a35780601f10610878576101008083540402835291602001916108a3565b6110dd6115b4565b6001600160a01b0316826001600160a01b03161415611143576040805162461bcd60e51b815260206004820152601960248201527f4552433732313a20617070726f766520746f2063616c6c657200000000000000604482015290519081900360640190fd5b80600560006111506115b4565b6001600160a01b03908116825260208083019390935260409182016000908120918716808252919093529120805460ff1916921515929092179091556111946115b4565b6001600160a01b03167f17307eab39ab6107e8899845ad3d59bd9653f200f220920489ca2b5937696c318360405180821515815260200191505060405180910390a35050565b600c5481565b6111f16111eb6115b4565b83611631565b61122c5760405162461bcd60e51b81526004018080602001828103825260318152602001806125936031913960400191505060405180910390fd5b6112388484848461194f565b50505050565b6060611249826115a7565b6112845760405162461bcd60e51b815260040180806020018281038252602f815260200180612543602f913960400191505060405180910390fd5b60008281526008602090815260409182902080548351601f60026000196101006001861615020190931692909204918201849004840281018401909452808452606093928301828280156113195780601f106112ee57610100808354040283529160200191611319565b820191906000526020600020905b8154815290600101906020018083116112fc57829003601f168201915b505060095493945050505060026000196101006001841615020190911604611342579050610812565b8051156114135760098160405160200180838054600181600116156101000203166002900480156113aa5780601f106113885761010080835404028352918201916113aa565b820191906000526020600020905b815481529060010190602001808311611396575b5050825160208401908083835b602083106113d65780518252601f1990920191602091820191016113b7565b6001836020036101000a03801982511681845116808217855250505050505090500192505050604051602081830303815290604052915050610812565b600961141e846119a1565b604051602001808380546001816001161561010002031660029004801561147c5780601f1061145a57610100808354040283529182019161147c565b820191906000526020600020905b815481529060010190602001808311611468575b5050825160208401908083835b602083106114a85780518252601f199092019160209182019101611489565b6001836020036101000a03801982511681845116808217855250505050505090500192505050604051602081830303815290604052915050919050565b6114ee33610a7d565b565b600a54604080516371d4ed8d60e11b81526001600160a01b0384811660048301529151600093929092169163e3a9db1a91602480820192602092909190829003018186803b15801561154157600080fd5b505afa158015611555573d6000803e3d6000fd5b505050506040513d602081101561156b57600080fd5b505192915050565b600d5481565b6001600160a01b03918216600090815260056020908152604080832093909416825291909152205460ff1690565b6000610a77600283611a7c565b3390565b600081815260046020526040902080546001600160a01b0319166001600160a01b03841690811790915581906115ed82610f83565b6001600160a01b03167f8c5be1e5ebec7d5bd14f71427d1e84f3dd0314c0f7b2291e5b200ac8c7c3b92560405160405180910390a45050565b6000610a7782611a88565b600061163c826115a7565b6116775760405162461bcd60e51b815260040180806020018281038252602c8152602001806123e9602c913960400191505060405180910390fd5b600061168283610f83565b9050806001600160a01b0316846001600160a01b031614806116bd5750836001600160a01b03166116b2846108ad565b6001600160a01b0316145b806116cd57506116cd8185611579565b949350505050565b826001600160a01b03166116e882610f83565b6001600160a01b03161461172d5760405162461bcd60e51b815260040180806020018281038252602981526020018061251a6029913960400191505060405180910390fd5b6001600160a01b0382166117725760405162461bcd60e51b81526004018080602001828103825260248152602001806123c56024913960400191505060405180910390fd5b61177d8383836109e5565b6117886000826115b8565b6001600160a01b03831660009081526001602052604090206117aa9082611a8c565b506001600160a01b03821660009081526001602052604090206117cd9082611a98565b506117da60028284611aa4565b5080826001600160a01b0316846001600160a01b03167fddf252ad1be2c89b69c2b068fc378daa952ba7f163c4a11628f55a4df523b3ef60405160405180910390a4505050565b6000610a748383611aba565b611847828260405180602001604052806000815250611b1e565b5050565b611854826115a7565b61188f5760405162461bcd60e51b815260040180806020018281038252602c8152602001806124ee602c913960400191505060405180910390fd5b600082815260086020908152604090912082516109e59284019061229c565b600a546040805163f340fa0160e01b81526001600160a01b0385811660048301529151919092169163f340fa0191849160248082019260009290919082900301818588803b1580156118ff57600080fd5b505af1158015611913573d6000803e3d6000fd5b50505050505050565b600080808061192b8686611b70565b9097909650945050505050565b6000611945848484611beb565b90505b9392505050565b61195a8484846116d5565b61196684848484611cb5565b6112385760405162461bcd60e51b81526004018080602001828103825260328152602001806123936032913960400191505060405180910390fd5b6060816119c657506040805180820190915260018152600360fc1b6020820152610812565b8160005b81156119de57600101600a820491506119ca565b60608167ffffffffffffffff811180156119f757600080fd5b506040519080825280601f01601f191660200182016040528015611a22576020820181803683370190505b50859350905060001982015b8315611a7357600a840660300160f81b82828060019003935081518110611a5157fe5b60200101906001600160f81b031916908160001a905350600a84049350611a2e565b50949350505050565b6000610a748383611e1d565b5490565b6000610a748383611e35565b6000610a748383611efb565b600061194584846001600160a01b038516611f45565b81546000908210611afc5760405162461bcd60e51b81526004018080602001828103825260228152602001806123716022913960400191505060405180910390fd5b826000018281548110611b0b57fe5b9060005260206000200154905092915050565b611b288383611fdc565b611b356000848484611cb5565b6109e55760405162461bcd60e51b81526004018080602001828103825260328152602001806123936032913960400191505060405180910390fd5b815460009081908310611bb45760405162461bcd60e51b81526004018080602001828103825260228152602001806124a06022913960400191505060405180910390fd5b6000846000018481548110611bc557fe5b906000526020600020906002020190508060000154816001015492509250509250929050565b60008281526001840160205260408120548281611c865760405162461bcd60e51b81526004018080602001828103825283818151815260200191508051906020019080838360005b83811015611c4b578181015183820152602001611c33565b50505050905090810190601f168015611c785780820380516001836020036101000a031916815260200191505b509250505060405180910390fd5b50846000016001820381548110611c9957fe5b9060005260206000209060020201600101549150509392505050565b6000611cc9846001600160a01b031661210a565b611cd5575060016116cd565b6060611de3630a85bd0160e11b611cea6115b4565b88878760405160240180856001600160a01b03168152602001846001600160a01b0316815260200183815260200180602001828103825283818151815260200191508051906020019080838360005b83811015611d51578181015183820152602001611d39565b50505050905090810190601f168015611d7e5780820380516001836020036101000a031916815260200191505b5095505050505050604051602081830303815290604052906001600160e01b0319166020820180516001600160e01b038381831617835250505050604051806060016040528060328152602001612393603291396001600160a01b0388169190612110565b90506000818060200190516020811015611dfc57600080fd5b50516001600160e01b031916630a85bd0160e11b1492505050949350505050565b60009081526001919091016020526040902054151590565b60008181526001830160205260408120548015611ef15783546000198083019190810190600090879083908110611e6857fe5b9060005260206000200154905080876000018481548110611e8557fe5b600091825260208083209091019290925582815260018981019092526040902090840190558654879080611eb557fe5b60019003818190600052602060002001600090559055866001016000878152602001908152602001600020600090556001945050505050610a77565b6000915050610a77565b6000611f078383611e1d565b611f3d57508154600181810184556000848152602080822090930184905584548482528286019093526040902091909155610a77565b506000610a77565b600082815260018401602052604081205480611faa575050604080518082018252838152602080820184815286546001818101895560008981528481209551600290930290950191825591519082015586548684528188019092529290912055611948565b82856000016001830381548110611fbd57fe5b9060005260206000209060020201600101819055506000915050611948565b6001600160a01b038216612037576040805162461bcd60e51b815260206004820181905260248201527f4552433732313a206d696e7420746f20746865207a65726f2061646472657373604482015290519081900360640190fd5b612040816115a7565b15612092576040805162461bcd60e51b815260206004820152601c60248201527f4552433732313a20746f6b656e20616c7265616479206d696e74656400000000604482015290519081900360640190fd5b61209e600083836109e5565b6001600160a01b03821660009081526001602052604090206120c09082611a98565b506120cd60028284611aa4565b5060405181906001600160a01b038416906000907fddf252ad1be2c89b69c2b068fc378daa952ba7f163c4a11628f55a4df523b3ef908290a45050565b3b151590565b60606119458484600085856121248561210a565b612175576040805162461bcd60e51b815260206004820152601d60248201527f416464726573733a2063616c6c20746f206e6f6e2d636f6e7472616374000000604482015290519081900360640190fd5b60006060866001600160a01b031685876040518082805190602001908083835b602083106121b45780518252601f199092019160209182019101612195565b6001836020036101000a03801982511681845116808217855250505050505090500191505060006040518083038185875af1925050503d8060008114612216576040519150601f19603f3d011682016040523d82523d6000602084013e61221b565b606091505b509150915061222b828286612236565b979650505050505050565b60608315612245575081611948565b8251156122555782518084602001fd5b60405162461bcd60e51b8152602060048201818152845160248401528451859391928392604401919085019080838360008315611c4b578181015183820152602001611c33565b828054600181600116156101000203166002900490600052602060002090601f0160209004810192826122d25760008555612318565b82601f106122eb57805160ff1916838001178555612318565b82800160010185558215612318579182015b828111156123185782518255916020019190600101906122fd565b5061232492915061235b565b5090565b604051806080016040528060006001600160a01b0316815260200160008152602001606081526020016000151581525090565b5b80821115612324576000815560010161235c56fe456e756d657261626c655365743a20696e646578206f7574206f6620626f756e64734552433732313a207472616e7366657220746f206e6f6e20455243373231526563656976657220696d706c656d656e7465724552433732313a207472616e7366657220746f20746865207a65726f20616464726573734552433732313a206f70657261746f7220717565727920666f72206e6f6e6578697374656e7420746f6b656e4552433732313a20617070726f76652063616c6c6572206973206e6f74206f776e6572206e6f7220617070726f76656420666f7220616c6c4552433732313a2062616c616e636520717565727920666f7220746865207a65726f20616464726573734552433732313a206f776e657220717565727920666f72206e6f6e6578697374656e7420746f6b656e456e756d657261626c654d61703a20696e646578206f7574206f6620626f756e64734552433732313a20617070726f76656420717565727920666f72206e6f6e6578697374656e7420746f6b656e4552433732314d657461646174613a2055524920736574206f66206e6f6e6578697374656e7420746f6b656e4552433732313a207472616e73666572206f6620746f6b656e2074686174206973206e6f74206f776e4552433732314d657461646174613a2055524920717565727920666f72206e6f6e6578697374656e7420746f6b656e4552433732313a20617070726f76616c20746f2063757272656e74206f776e65724552433732313a207472616e736665722063616c6c6572206973206e6f74206f776e6572206e6f7220617070726f766564a2646970667358221220eb0aeee2998bb85483fb60f32cb6f141eee975139b42d5779d408c0c3439198d64736f6c63430007050033608060405234801561001057600080fd5b50600061001b61006a565b600080546001600160a01b0319166001600160a01b0383169081178255604051929350917f8be0079c531659141344cd1fd0a4f28419497f9722a3daafe3b4186f6b6457e0908290a35061006e565b3390565b6106d28061007d6000396000f3fe6080604052600436106100555760003560e01c806351cff8d91461005a578063715018a61461008f5780638da5cb5b146100a4578063e3a9db1a146100d5578063f2fde38b1461011a578063f340fa011461014d575b600080fd5b34801561006657600080fd5b5061008d6004803603602081101561007d57600080fd5b50356001600160a01b0316610173565b005b34801561009b57600080fd5b5061008d610236565b3480156100b057600080fd5b506100b96102d8565b604080516001600160a01b039092168252519081900360200190f35b3480156100e157600080fd5b50610108600480360360208110156100f857600080fd5b50356001600160a01b03166102e7565b60408051918252519081900360200190f35b34801561012657600080fd5b5061008d6004803603602081101561013d57600080fd5b50356001600160a01b0316610302565b61008d6004803603602081101561016357600080fd5b50356001600160a01b03166103fa565b61017b6104cd565b6000546001600160a01b039081169116146101cb576040805162461bcd60e51b8152602060048201819052602482015260008051602061067d833981519152604482015290519081900360640190fd5b6001600160a01b03811660008181526001602052604081208054919055906101f390826104d1565b6040805182815290516001600160a01b038416917f7084f5476618d8e60b11ef0d7d3f06914655adb8793e28ff7f018d4c76d505d5919081900360200190a25050565b61023e6104cd565b6000546001600160a01b0390811691161461028e576040805162461bcd60e51b8152602060048201819052602482015260008051602061067d833981519152604482015290519081900360640190fd5b600080546040516001600160a01b03909116907f8be0079c531659141344cd1fd0a4f28419497f9722a3daafe3b4186f6b6457e0908390a3600080546001600160a01b0319169055565b6000546001600160a01b031690565b6001600160a01b031660009081526001602052604090205490565b61030a6104cd565b6000546001600160a01b0390811691161461035a576040805162461bcd60e51b8152602060048201819052602482015260008051602061067d833981519152604482015290519081900360640190fd5b6001600160a01b03811661039f5760405162461bcd60e51b815260040180806020018281038252602681526020018061061d6026913960400191505060405180910390fd5b600080546040516001600160a01b03808516939216917f8be0079c531659141344cd1fd0a4f28419497f9722a3daafe3b4186f6b6457e091a3600080546001600160a01b0319166001600160a01b0392909216919091179055565b6104026104cd565b6000546001600160a01b03908116911614610452576040805162461bcd60e51b8152602060048201819052602482015260008051602061067d833981519152604482015290519081900360640190fd5b6001600160a01b038116600090815260016020526040902054349061047790826105bb565b6001600160a01b038316600081815260016020908152604091829020939093558051848152905191927f2da466a7b24304f47e87fa2e1e5a81b9831ce54fec19055ce277ca2f39ba42c492918290030190a25050565b3390565b80471015610526576040805162461bcd60e51b815260206004820152601d60248201527f416464726573733a20696e73756666696369656e742062616c616e6365000000604482015290519081900360640190fd5b6040516000906001600160a01b0384169083908381818185875af1925050503d8060008114610571576040519150601f19603f3d011682016040523d82523d6000602084013e610576565b606091505b50509050806105b65760405162461bcd60e51b815260040180806020018281038252603a815260200180610643603a913960400191505060405180910390fd5b505050565b600082820183811015610615576040805162461bcd60e51b815260206004820152601b60248201527f536166654d6174683a206164646974696f6e206f766572666c6f770000000000604482015290519081900360640190fd5b939250505056fe4f776e61626c653a206e6577206f776e657220697320746865207a65726f2061646472657373416464726573733a20756e61626c6520746f2073656e642076616c75652c20726563697069656e74206d617920686176652072657665727465644f776e61626c653a2063616c6c6572206973206e6f7420746865206f776e6572a2646970667358221220e9fc07cd205c07dac48fbfec6a8778424b95eb7b3b6f8dfce645a129de65578f64736f6c63430007050033",
  "immutableReferences": {},
  "source": "/* ======================================\n    __  __\n   / / / /__  _________ ___  ___  _____\n  / /_/ / _ \\/ ___/ __ `__ \\/ _ \\/ ___/\n / __  /  __/ /  / / / / / /  __(__  )\n/_/ /_/\\___/_/  /_/ /_/ /_/\\___/____/\n\n======================================== */\n\n// SPDX-License-Identifier: MIT\npragma solidity >=0.7.5 <0.8.0;\n\nimport \"@openzeppelin/contracts/token/ERC721/ERC721.sol\";\nimport \"@openzeppelin/contracts/payment/PullPayment.sol\";\nimport \"@openzeppelin/contracts/utils/ReentrancyGuard.sol\";\n\ncontract Hermes is ERC721, PullPayment, ReentrancyGuard {\n    uint256 public _tokenIds;\n    uint256 public _postIds;\n    mapping(uint256 => Post) private _posts;\n\n    struct Post {\n        address seller;\n        uint256 price;\n        string postData;\n        bool exists;\n    }\n\n    constructor() ERC721(\"Hermes\", \"HERMES\") {}\n\n    modifier postExist(uint256 id) {\n        require(_posts[id].exists, \"Not Found\");\n        _;\n    }\n\n    function addPost(uint256 price, string memory postData) public nonReentrant() {\n        require(price > 0, \"Price cannot be 0\");\n\n        _postIds++;\n        _posts[_postIds] = Post(msg.sender, price, postData, true);\n    }\n\n    function getPost(uint256 id)\n        public\n        view\n        postExist(id)\n        returns (\n            uint256,\n            uint256,\n            string memory\n        )\n    {\n        Post memory post = _posts[id];\n        return (id, post.price, post.postData);\n    }\n\n    function purchasePost(uint256 postId)\n        external\n        payable\n        postExist(postId)\n        nonReentrant()\n    {\n        Post storage post = _posts[postId];\n\n        require(msg.value >= post.price, \"Your bid is too low\");\n\n        _tokenIds++;\n\n        _safeMint(msg.sender, _tokenIds);\n        _setTokenURI(_tokenIds, post.postData);\n        _asyncTransfer(post.seller, msg.value);\n    }\n\n    function getPayments() external {\n        withdrawPayments(msg.sender);\n    }\n}\n",
  "sourcePath": "D:/Users/anudit/Documents/Github/hermes/contracts/Hermes.sol",
  "compiler": {
    "name": "solc",
    "version": "0.7.5+commit.eb77ed08.Emscripten.clang"
  },
  "schemaVersion": "3.3.2",
  "updatedAt": "2020-12-08T13:23:05.275Z",
  "devdoc": {
    "kind": "dev",
    "methods": {
      "approve(address,uint256)": {
        "details": "See {IERC721-approve}."
      },
      "balanceOf(address)": {
        "details": "See {IERC721-balanceOf}."
      },
      "baseURI()": {
        "details": "Returns the base URI set via {_setBaseURI}. This will be automatically added as a prefix in {tokenURI} to each token's URI, or to the token ID if no specific URI is set for that token ID."
      },
      "getApproved(uint256)": {
        "details": "See {IERC721-getApproved}."
      },
      "isApprovedForAll(address,address)": {
        "details": "See {IERC721-isApprovedForAll}."
      },
      "name()": {
        "details": "See {IERC721Metadata-name}."
      },
      "ownerOf(uint256)": {
        "details": "See {IERC721-ownerOf}."
      },
      "payments(address)": {
        "details": "Returns the payments owed to an address.",
        "params": {
          "dest": "The creditor's address."
        }
      },
      "safeTransferFrom(address,address,uint256)": {
        "details": "See {IERC721-safeTransferFrom}."
      },
      "safeTransferFrom(address,address,uint256,bytes)": {
        "details": "See {IERC721-safeTransferFrom}."
      },
      "setApprovalForAll(address,bool)": {
        "details": "See {IERC721-setApprovalForAll}."
      },
      "supportsInterface(bytes4)": {
        "details": "See {IERC165-supportsInterface}. Time complexity O(1), guaranteed to always use less than 30 000 gas."
      },
      "symbol()": {
        "details": "See {IERC721Metadata-symbol}."
      },
      "tokenByIndex(uint256)": {
        "details": "See {IERC721Enumerable-tokenByIndex}."
      },
      "tokenOfOwnerByIndex(address,uint256)": {
        "details": "See {IERC721Enumerable-tokenOfOwnerByIndex}."
      },
      "tokenURI(uint256)": {
        "details": "See {IERC721Metadata-tokenURI}."
      },
      "totalSupply()": {
        "details": "See {IERC721Enumerable-totalSupply}."
      },
      "transferFrom(address,address,uint256)": {
        "details": "See {IERC721-transferFrom}."
      },
      "withdrawPayments(address)": {
        "details": "Withdraw accumulated payments, forwarding all gas to the recipient. Note that _any_ account can call this function, not just the `payee`. This means that contracts unaware of the `PullPayment` protocol can still receive funds this way, by having a separate account call {withdrawPayments}. WARNING: Forwarding all gas opens the door to reentrancy vulnerabilities. Make sure you trust the recipient, or are either following the checks-effects-interactions pattern or using {ReentrancyGuard}.",
        "params": {
          "payee": "Whose payments will be withdrawn."
        }
      }
    },
    "version": 1
  },
  "userdoc": {
    "kind": "user",
    "methods": {},
    "version": 1
  }
}